:020000040800F2
:1000000000070020E1010008191E0008D11D0008AA
:10001000F91D0008D11D0008F11D0008E3010008CA
:10002000E3010008E3010008E30100088D3B00083C
:10003000E3010008E3010008E3010008E301000810
:10004000E3010008E3010008E3010008E301000800
:10005000E3010008E3010008354000085D400008A6
:1000600085400008AD400008D5400008E3010008C5
:10007000E3010008E3010008E3010008E3010008D0
:10008000E3010008E3010008E30100083D2E000839
:10009000A92E0008FD2E0008512F0008FD40000881
:1000A000E3010008E3010008E3010008E3010008A0
:1000B000F9410008E3010008E3010008E30100083A
:1000C000E3010008E3010008E3010008E301000880
:1000D000E3010008D1410008E5410008E301000800
:1000E00061410008E3010008E3010008E3010008A2
:1000F000E3010008E3010008E3010008E301000850
:10010000E3010008E3010008E3010008E30100083F
:10011000E3010008E3010008E3010008E30100082F
:10012000E3010008E3010008E3010008E30100081F
:10013000E3010008E3010008E3010008E30100080F
:10014000E3010008E3010008E3010008E3010008FF
:10015000E3010008E3010008E3010008E3010008EF
:10016000E3010008E3010008E3010008E3010008DF
:10017000E3010008E3010008E3010008E3010008CF
:10018000E3010008E3010008E3010008E3010008BF
:10019000E3010008E3010008E3010008E3010008AF
:1001A000E3010008E3010008E3010008E30100089F
:1001B000E3010008E3010008E3010008E30100088F
:1001C000E3010008E3010008E3010008E30100087F
:1001D000E3010008E3010008E3010008E30100086F
:1001E00002E000F000F8FEE772B6374880F30888B6
:1001F000364880F3098836483649086040F20000E6
:10020000CCF200004EF63471CEF200010860BFF36C
:100210004F8FBFF36F8F40F20000C0F2F0004EF638
:100220008851CEF200010860BFF34F8FBFF36F8F8C
:100230004FF00000E1EE100A4EF63C71CEF20001E4
:100240000860062080F31488BFF36F8F03F0FCFC76
:1002500003F08EFD4FF055301F491B4A91423CBFC1
:1002600041F8040BFAE71D49184A91423CBF41F896
:10027000040BFAE71A491B4A1B4B9A423EBF51F83E
:10028000040B42F8040BF8E700201849184A914281
:100290003CBF41F8040BFAE703F0DAFC03F0B6FDCB
:1002A000144C154DAC4203DA54F8041B8847F9E7A7
:1002B00000F0BEFB114C124DAC4203DA54F8041BA3
:1002C0008847F9E703F0C2BC0007002000230020A4
:1002D0000000000808ED00E00001002000070020F9
:1002E0003049000800230020242300202823002078
:1002F000CC3D0020E0010008E0010008E00100081A
:10030000E00100082DE9F04F2DED108AC1F80CD066
:10031000C3689D46BDEC108ABDE8F08F002383F3CF
:1003200011882846A047002003F0ACF8FEE703F050
:1003300045F800DFFEE7000080EA0102844612F083
:10034000030F4FD111F0030F32D14DF8044D11F0CE
:10035000040F51F8043B0BD0A3F101329A4312F081
:10036000803F04BF4CF8043B51F8043B16D100BF5A
:1003700051F8044BA3F101329A4312F0803FA4F1EB
:1003800001320BD14CF8043BA24312F0803F04BF72
:1003900051F8043B4CF8044BEAD023460CF8013BDF
:1003A00013F0FF0F4FEA3323F8D15DF8044B704789
:1003B00011F0010F06D011F8012B0CF8012B002AC7
:1003C00008BF704711F0020FBFD031F8022B12F0B6
:1003D000FF0F16BF2CF8022B8CF8002012F47F4F71
:1003E000B3D1704711F8012B0CF8012B002AF9D179
:1003F000704700BF01292DE9F0415BD94FF001089A
:10040000C64600244FF0FF35434608E0A3EB05083D
:100410001C464FF0010E04EB0E03994210D900EB7D
:10042000050CC75C1CF80E60B742EFD332D04FF01A
:1004300001082546C646444404EB0E039942EED813
:100440000127C2F80080BE4600244FF0FF363B462D
:1004500007E09F1B1C464FF0010E04EB0E03994270
:1004600010D900EB060C10F803801CF80EC0E04514
:10047000EFD817D001272646BE463C4404EB0E03B6
:100480009942EED80136681C864201D31760304687
:10049000BDE8F081C6450ABF74440EF1010E4FF06D
:1004A000010EB8E7BE450ABF74440EF1010E4FF0CD
:1004B000010ED2E701270026E8E700BF2DE9F04F43
:1004C000164685B003AA0D460746194630461C4617
:1004D000FFF790FFDDF80CA00246804606EB0A010C
:1004E000304600F027FA2A1B002852D101468446E4
:1004F000A4EB0A0BC8F10109CDF804A088454346D6
:1005000038BF0B469C4219D95D1E03EB0C003544E5
:10051000384402E001339C4210D010F801EB15F88A
:1005200001AFF245F6D09C4208D9CC449C4400214E
:100530009445E3D9002005B0BDE8F08F884508F167
:10054000FF3367D908EB0C00384406EB0805CDF8FB
:10055000008002E08B4212D0534615F8018D10F84E
:1005600001EDF04503F1FF3AF4D0DDF800800133EE
:100570000131994208D8019B59469C44D8E7013182
:100580009942DDF80080F6D907EB0C0005B0BDE814
:10059000F08FA4EB0801414538BF4146444501F1C5
:1005A00001014FF0000C31D908F1FF3EC8F10109FB
:1005B0000CEB080006EB0E053844434602E001331D
:1005C0009C4223D010F801AB15F801BFD345F6D0FB
:1005D0009C421BD9CC449C449445ABD84445E7D8B5
:1005E00006EB08090CEB08053D44484601E0B34220
:1005F000CAD010F801AD15F801EDF2450346F6D06A
:100600008C44944596D84445CED8EBE7B8F1000F1A
:10061000E6D1B9E74346ABE72DE9F04F1546ADF219
:100620001C4D06468A4605AA194628460093FFF740
:10063000E1FE009B80460DF2144142F8043F8A42DD
:10064000FBD15C1E002B00F0CE80691E04EB050C74
:1006500006AF11F8010F5A1A013A2A44614547F8CA
:100660002020F6D1DDF814B0009305EB0B014246D3
:10067000284600F05FF9009B0146AAEB030A002818
:100680005CD1A3EB0B03C8F101020093CDE901B2E9
:100690000346A9460AE021B101999142009988BF19
:1006A0000A46134453454FF0000142D806EB030CB1
:1006B0001CF8042057F82220002AECD18845424635
:1006C00038BF0A46A24212D2551ED0184D443044BB
:1006D00002E00132A2420AD010F801EB15F801BF86
:1006E000F345F6D0A24202D202990B44D9E78845DD
:1006F00008F1FF327BD908EB0300304409EB080511
:10070000CDF80C8002E08A426AD05A4615F8018D75
:1007100010F801EDF04502F1FF3BF4D0DDF80C805C
:1007200001320131914260D8019A00991344534536
:10073000BCD900200DF21C4DBDE8F08FA3EB0803DF
:1007400043454FF0000C38BF434606EB0C00013325
:100750000193035D57F8233008F1FF39C8F1010B0D
:100760004BB19C44D445E4D806EB0C00035D57F82C
:100770002330002BF5D1A04517D208EB0C023244F0
:1007800005EB09014346CDF800C002E00133A34266
:1007900023D012F801CB11F801EFE645F6D0DDF8D1
:1007A00000C0A34238BFDC44DBD3B8F1000FC1D096
:1007B00008EB0C01314405EB0802CDF800C001E064
:1007C000AB42B7D012F801ED11F801CDE645134662
:1007D000F6D0DDE900C39C44C4E7DDF800C0E4E7DF
:1007E000DDF80C809DE706AF3CE76046A2E7424695
:1007F00097E700BF2DE9F0470446C0B0002B6AD050
:10080000012B0D4690461F4600F086808B425ED835
:10081000CD1A022B00EB050661D0B3F5807F00F204
:1008200082804FF48072002168465D1E00F0A8FFB0
:1008300098F80010012240460B4610F8011FA1EB6A
:10084000C303DBB20DF8032001329542F4D808EB64
:1008500007034FF0000A13F8022C18F80530A3EB39
:10086000C203DBB21DF803900DF80350A5EB090994
:10087000B44201D92BE063B92C44A64214F8013CE0
:1008800094F800C0ACEBC30C5FFA8CFC1DF80C3084
:10089000F1D29D42A4EB0304EAD80F2D07D904221C
:1008A00008EB0A0104EB0A0000F044F860B92A469C
:1008B0004146204600F03EF868B1BAF1030F8CBF04
:1008C000AAF1040AA7F1050A4C44B442D4D9002085
:1008D00040B0BDE8F087204640B0BDE8F08713780F
:1008E0005078217840EA0340234613F8012F9E42B6
:1008F00042EA01421BD39042EDD0013601E0904222
:1009000008D013F8011F9E4241EA0242F7D1824209
:10091000DDD13346581EDBE711782A4640B0BDE8EA
:10092000F04700F035B840B0BDE8F04774E61E4629
:10093000EDE700BF032A30B415D941EA0004A4074B
:1009400084460B4604D0541E0FE0043A032A08D90B
:100950001946604653F8044B5CF8045BA542F4D09A
:10096000F1E760461946541E7AB1431E0139021957
:1009700001E09A4209D013F8010F11F801CF604548
:10098000F7D0A0EB0C0030BC7047002030BC7047A3
:1009900001F0FF01102A2BDB10F0070F08D010F830
:1009A000013B013A8B422DD010F0070F42B3F6D134
:1009B000F0B441EA012141EA014122F007047FF04D
:1009C00000070023F0E80256083C85EA010586EAA4
:1009D000010685FA47F5A3FA87F586FA47F6A5FAE0
:1009E00087F68EB9EED1F0BC01F0FF0102F00702EC
:1009F00032B110F8013B013A83EA010313B1F8D197
:100A00000020704701387047002D06BF3546033877
:100A1000073815F0010F07D1013015F4807F02BFB0
:100A2000013015F4C03F0130F0BC0138704700BF01
:100A3000F8B500F031FE03F047F8074603F092F8EE
:100A40000646C0BB274B9F4235D001339F4235D06D
:100A5000254B27F0FF029A4233D1F8B200F002FC96
:100A6000354642F2107400F003FC08B1002425461C
:100A700001F034F948B3032000F03AF80024254689
:100A800036B11A4B9F4203D003F064F80024254688
:100A9000002003F023F80DB100F040F800F04AFC0C
:100AA00001F0BCF90546ACB900F0E6FC4FF47A70F1
:100AB00002F0EEFCF7E735460024D4E704460125B2
:100AC000D1E705464FF47A74CDE7B4F57A7F08BFD5
:100AD0000125D5E701F0A2F9431BA342E4D900F0B8
:100AE0001DF8DDE7010007B0000008B0263A09B0A4
:100AF000084B187003280CD8DFE800F0080502083E
:100B0000022000F027BE022000F01ABE024B002295
:100B10005A607047302300202823002010B501F0D0
:100B2000DDF830B1204B03221A70204B00225A60AE
:100B300010BD1F4B1F4A1C4619680131F8D0043301
:100B40009342F9D162681C4B9A42F1D91B4B9B68C6
:100B500003F1006303F580339A42E9D202F0CEFF3D
:100B600002F0E0FF002000F0B1FD0220FFF7C0FF1F
:100B7000134B1A6C00221A64196E1A66196E596C9E
:100B80005A64596E5A665B6E72B64FF0E02330219C
:100B9000C3F8084DD4E9003281F311889D4683F3F0
:100BA00008881047C4E700BF302300202823002016
:100BB0000000010820000108FFFF000800230020BA
:100BC00000380240094A136849F2690099B21B0CC7
:100BD00000FB01331360064B186844F2506182B287
:100BE000000C01FB0200186080B270471423002043
:100BF0001023002010B500211022044600F0C0FD93
:100C0000034B03CB206061601868A06010BD00BF7B
:100C1000107AFF1F70B50C4615461E4601F09CFB6E
:100C200050B9022E10D1012D0ED112A3D3E9002309
:100C3000C4E90023012007E0282D10D005D8012D9C
:100C400009D0052D0FD0002070BD302DFBD10BA396
:100C5000D3E90023ECE70BA3D3E90023E8E70BA3D8
:100C6000D3E90023E4E70BA3D3E90023E0E700BFC7
:100C7000AFF30080401DA12026812A0B78F6339F18
:100C800093CACD8D9E6AC421818A46EE2641727236
:100C9000DF25D7B7F017304A39059E56F0B5ADF5C8
:100CA0004F7D6CAC4FF4C47207460D4620460021C0
:100CB00000F066FD01F0B2F8264B4FF47A72B0FBFB
:100CC000F2F0186093E80700022384E807000DF5AE
:100CD000E9702382FFF78EFF44F604431E49238404
:100CE00007A8FFF729FB162384F832310DF2E3221F
:100CF00007AB0DF12C0C1E4603CE6645106051600B
:100D0000334602F10802F6D130681060B388938050
:100D10000DAE31460122204600F07EFD80B2CDE9C5
:100D2000046000230393AB7E029305F11903019342
:100D300001230093E97E05A3D3E90023384601F09F
:100D4000ADFB0DF54F7DF0BDAFF300809E6AC42171
:100D5000818A46EE38250020B84700082DE9F04189
:100D6000264D2B7ADAB080460C46FBB927A92046DF
:100D700000F078FE0746002836D19DF89D60C82E09
:100D800032D801464FF4FA72284600F0F9FC324698
:100D90000DF19E0105F1090000F0E6FC2E449DF8DE
:100DA0009C3077722B720BB9E37E2B72812200216B
:100DB00006AD27A800F0E4FC0122294627A800F090
:100DC00097FE80B2CDE9045000230393A37E0293E3
:100DD00004F11903019328230093E17E05A3D3E9CD
:100DE0000023404601F05AFB5AB0BDE8F08100BF35
:100DF000AFF3008026417272DF25D7B73C23002075
:100E0000F0B5254E4FF48A73F1B003FB0065002462
:100E100096F8D83085F8DC30D02221463CA885F8F9
:100E2000E84000F0ADFC06F1090000F0A7FCD5F8A1
:100E3000E4308DF8F000C2B206AF06F109010DF101
:100E4000F100CDE93A3400F08FFC394601223AA88E
:100E500000F082FE80B2CDE9047008230127CDE9BD
:100E6000023706F1D803019330230093317A0B48FF
:100E700007A3D3E9002301F011FBA04206DD00F037
:100E8000CDFFC5F8E000384671B0F0BD2046FBE765
:100E900078F6339F93CACD8D3C230020483500203F
:100EA000F0B51E4E1E4F1F4D85B0304601F022FB9F
:100EB000044660B310220021684600F061FC227BEA
:100EC0006068A1684FF0000362F303038DF80030FF
:100ED00002AB03C3019B226862F31C0301939DF8DC
:100EE000003043F020038DF8003000236A46194695
:100EF000384602F09FF9044620B9304601F0FEFA68
:100F00002C70D2E72B78072B03D801332B7005B058
:100F1000F0BD024801F0F2FAF9E700BF48350020C1
:100F2000A83500203923002010B50021044600F028
:100F3000EFFB601C0B4C80B2A4F8F00100F0D0FB7A
:100F400070B1B4F8F00100F0DBFB014640B9B4F831
:100F5000F00100F0DDFBB4F8F001013080B2EBE706
:100F600010BD00BF3C2300202DE9F04F8DB000AF35
:100F700005460C4601F0F0F9002848D1237E022BEB
:100F80001AD1E38A012B17D100F048FF0646FFF77C
:100F900019FE4FF4C873DFF8C482B0FBF3F206F514
:100FA000167602FB130316FA83F3C8F80030E37ECB
:100FB00033B9A44B00221A703437BD46BDE8F08F18
:100FC00007F11C01204600F001FD0028F4D107F1D3
:100FD0000C00FFF70FFEBC7F07F10C01224607F162
:100FE0001F00FFF7A7FC0028E3D10F2C08D8954B72
:100FF0001C70D8F80030A3F51673C8F80030DBE792
:10100000397F0029D8D0284601F09EF9D4E7E38A39
:10101000282B6FD010D8012B67D0052BCCD1BFF374
:101020004F8F8949894BCA6802F4E0621343CB6051
:10103000BFF34F8F00BFFDE7302BBDD1DFF820A2FB
:10104000E17E9AF808209142B6D19AF8DC10627ECF
:10105000914254D10AF1EA01204600F0B1FD054663
:101060000028A9D101228AF8E82000F0D7FEDAF89A
:10107000E020DAED007ADFED766A801A192838BFB1
:10108000192040F6B832904228BF1046B8EE677A71
:1010900007EE900AF8EEE77A67EEA67ADFED6D6A62
:1010A000E7EE267AFCEEE77ACAED007A9AF8D930B4
:1010B0007B604FF48A7253430AEB0302DAF80400B0
:1010C00092F8E81051B1D2F8E4408442E84622D0C8
:1010D000002182F8E810C2F8E010C546DAF80430C2
:1010E0005D4A9B0A0133138166E721462846FFF7D4
:1010F000D5FD61E721462846FFF730FE5CE7DAF8C8
:10110000002040F6B831FA328A4294BFCAF8002073
:10111000CAF8001050E7B2F8EC603B60F21C4FEAEE
:10112000920B22F003020732D208A8EBC2039D46BD
:10113000E9464FEA8B020021484600F021FB3B685C
:1011400003F1EE0132465144484600F00DFB14B95C
:10115000012000F0BBFA9AF8D20000F0C1FA044670
:1011600038B98AF8080000F0DBFA204600F0AEFA41
:10117000B3E7DAF8D4203AB99AF8D200BAF8F021F5
:10118000824201D8FFF7D0FEDAF8D42032449442EC
:1011900008D29AF8D200BAF8F0210130824201D880
:1011A000FFF7C2FEDAF804005FFA8BF2494600F05E
:1011B000EFFA08B9C54679E7DAF804209AF8D200C0
:1011C0003244CAF80420DAF8D42006EB0209CAF83F
:1011D000D49000F085FA814509D39AF8D2200132E3
:1011E0008AF8D220DAF8D420121BCAF8D420FF2EB5
:1011F00010D800248AF8084000F092FA204600F047
:1012000065FA00F06BFD144B188108B9FFF786FCF6
:10121000C546D1E67B689AF8D9004FF48A7202FB82
:1012200003A2D2F8E41082F8E85001F58071C2F808
:10123000E050C2F8E410FFF7E3FDFFF731FE8AF853
:10124000D950B7E73025002000ED00E00400FA0592
:10125000CDCCCC3D6666663F382500203425002085
:101260003C230020014B1870704700BF452500202B
:1012700030B54FF00054264B22689A4285B017D102
:10128000637DABB1234A24481370237D037200258C
:101290002249C0F8E450C922093000F065FA20461E
:1012A000E022294600F06CFA0124204605B030BD4A
:1012B00002F062FC044608B90024F6E7184A194D0A
:1012C000136C43F000731364AA6D174B9A42F3D169
:1012D0002B6E013B7E2BEFD8144A07CA01AB83E883
:1012E00007001846032100F0C7FC6B6D83424FF0E6
:1012F0000003E1D12A6D8A4201BFAB65054B2A6E1E
:101300001A7003BF0A4BEA6D1A601C46CDE700BF96
:101310009AAD44C5452500203C230020160000203E
:1013200000380240006600405041A0B058660040BE
:10133000202300202DE9F743434C00F0CFFC02238B
:101340006371424B20811F68B7F57A7F78D3404A9A
:10135000404EB6FBF7F1974294BF11220A22B1FB2F
:10136000F2F002FB1013002B67D1411EB1F5806F24
:1013700067D2511E5FFA81FCCCEBCC01CA1C4FEA4C
:10138000E208C2F3C702ACEB020E08F101094FF408
:101390007A755FFA8EF308FB055559FA8EFEB5FB98
:1013A000FEF5B5F5617F81BF01F1FF31C1F3C702E1
:1013B000ACEB0203DBB2D518591E05FB0005B6FBEA
:1013C000F5F6B742C9B23BD1072939D880B2013A04
:1013D000013B1204204942EA0352013802431F48EC
:1013E0004A6001F017FF002301931D4B1D49009334
:1013F0001D481E4B4FF4805200F07EFF1C4B1978A5
:1014000011B1194800F0A0FF00F008FD0546FFF7F4
:10141000D9FB4FF4C87305F51675B0FBF3F202FB68
:101420001300144B15FA80F0186002F09BFB08B112
:101430000F23238103B0BDE8F083013A022A8ED145
:1014400000231A461846C2E7382500202023002032
:101450003F420F0040787D0118230020A83500206E
:10146000150C00084825002048350020690F0008A9
:1014700045250020342500202DE9F04F0FF20429E6
:10148000D9E90089784C93B00CADFFF709FD18221B
:101490000021284600F074F9744E754F0023194658
:1014A0002A46304601F0EEFE0146002800F0938007
:1014B000204600F051FF8246002841D16D4E00F0D9
:1014C000ADFC336898423BD300F0A8FC0746FFF719
:1014D00079FB4FF4C872DFF8B4B1B0FBF2F107F555
:1014E000167301FB120013FA80F030609BF8006065
:1014F000B6FA86F35B0928468DF82030FFF77AFBB1
:10150000C6F11002D2B2062A28BF0622A9190DF18F
:101510002100079200F028F9079A08AB03931823DB
:1015200002930132544B0193D2B2012304920093EF
:1015300020464BA3D3E9002300F052FF8BF800A014
:1015400000F06CFC4D4ADFF848A11368C31AB3F5EC
:101550007A7F31D3106000F063FC02460B462046D0
:1015600000F0D6FF204600F0F7FE28B39AF80830C6
:10157000DFF820B1002B0CBF022303238BF80530CA
:1015800000F04CFC4FF47A730122B0FBF3F02946D3
:10159000CBF80000584600F0F1F918230293384BBD
:1015A000019380B240F25513CDE9035000934246B7
:1015B0004B46204600F014FF9AF80830002B35D136
:1015C000C82001F065FF9AF80830002B7FF45CAF6B
:1015D00013B0BDE8F08F102208A800F0D1F87B69A5
:1015E00083F480537B6100F01BFC0B4612A902467A
:1015F00011E903000DF1240C8CE803009DF8341070
:10160000C1F3030089064CBF0E99BDF838108DF860
:101610002C0046BFC1F31C0141F00041C1F30A0197
:101620000891204608A901F043F937E700F0F6FBDE
:101630009AF8E830002BC3D1DAF8E0304BB1C01A89
:10164000DAF80030FA2B38BFFA230533B0EB430F3A
:10165000B6D30020FFF7D4FBB2E700BFAFF30080A2
:10166000401DA12026812A0B48350020A8350020E6
:1016700000040240342500204425002034230020AB
:1016800038230020F1C6A7C1D068080F30250020FC
:101690003C2300203825002070B502F0D9F8094E0F
:1016A000094C3080002520683388834208D902F035
:1016B000C9F8236805440133B5F5803F2360F2D3B0
:1016C00070BD00BFA0350020A435002002F06CB929
:1016D00000F10060920000F5803002F0FFB80000D9
:1016E000054B1A68054B1B889B1A834202D910448C
:1016F00002F0A8B800207047A4350020A0350020D3
:10170000024B1B68184402F0A5B800BFA4350020A6
:10171000024B1B68184402F0B5B800BFA435002086
:10172000064991F8243033B10023086A81F8243047
:101730000822FFF7CDBF0120704700BF7835002099
:10174000022802BF024B4FF080529A61704700BFDF
:1017500000040240022802BF024B4FF480529A61FB
:10176000704700BF0004024010B50023934200D12F
:1017700010BDCC5CC4540133F8E70000FFF7FEBF96
:1017800002440346934200D1704703F8011BF9E776
:101790002DE9F8431F4D144695F824200746884646
:1017A00022B9DFF870906CB9012009E02B6A03EBD5
:1017B00082038342F5D0FFF7B3FF0028F1D1002068
:1017C000BDE8F88395F824302BB92022FF21484644
:1017D0002F62FFF7D5FF95F82400C0F10802A2425E
:1017E00028BF2246D6B24146920005EB8000FFF7A3
:1017F000BBFF95F82430A41B1E44F6B2082E1744F4
:101800009044E4B285F82460CDD1FFF789FF002829
:10181000C9D1D4E7783500202DE9F3470D460446B9
:1018200000219046284640F27912FFF7A9FF23468F
:1018300020220021284600F0D9FF231D022220216A
:10184000284600F0D3FF631D03222221284600F022
:10185000CDFFA31D03222521284600F0C7FF04F178
:10186000080310222821284600F0C0FF04F11003CD
:1018700008223821284600F0B9FF04F1110308229C
:101880004021284600F0B2FF04F11203082248214B
:10189000284600F0ABFF04F1140320225021284613
:1018A00000F0A4FF04F1180340227021284600F044
:1018B0009DFF04F120030822B021284600F096FF86
:1018C00004F121030822B821284600F08FFF04F11B
:1018D0002207C0263B46314608222846083600F03B
:1018E00085FFB6F5A07F07F10107F3D194F83230F8
:1018F0008DF8073031460DF107030822284600F025
:1019000075FF002604F1330A9DF807304FEAC60937
:101910009E4209F5A47720D394F83231502B28BF8A
:1019200050238DF80730B8F1000F08D139460DF17A
:1019300007030722284600F059FF09F24F17002637
:1019400004F233149DF807309E4207EBC6010DD315
:101950000731C80802B0BDE8F0870AEB0603082289
:101960003946284600F042FF0136CDE7A319082288
:10197000284600F03BFF0136E4E7000038B50C468E
:101980000021054621600346C4F8031020462022AA
:1019900000F02CFF2B1D20460222202100F026FF04
:1019A0006B1D20460322222100F020FFAB1D2046A4
:1019B0000322252100F01AFF204605F1080310221A
:1019C000282100F013FF072038BD0000F7B5057F80
:1019D00004460E462DB1838A122B02D9012003B092
:1019E000F0BD0023194607220096204600F0CAFDEC
:1019F000731C0093012200230721204600F0C2FD42
:101A0000D5B9B31C009305222B460821204600F0CF
:101A1000B9FD0D25B378102BE0D83746B278BB1B43
:101A2000934210D3237FA08A0735ED08B3B9A842AB
:101A30002CBF00200120D2E7A38ADB00083BDB0893
:101A4000B3700825E6E7FB1C009329460023082213
:101A5000204600F097FD08350137DFE7401B18BF2F
:101A60000120BCE7F7B5047F05460E462CB1838AFA
:101A7000CA2B02D9012003B0F0BD00230096082232
:101A80001946284600F07EFDDCB9731C082200933D
:101A900011462346284600F075FD10247378C82BA4
:101AA000E8D8012372785F1C013B934210D32B7F4F
:101AB000A88A0734E408B3B9A0422CBF0020012053
:101AC000D9E7AB8ADB00083BDB0873700824E5E745
:101AD000F3190093214600230822284600F052FD06
:101AE00008343B46DEE7001B18BF0120C3E70000B7
:101AF000F7B50E4604460021154630468122FFF711
:101B00003FFE234608220021304600F06FFE637836
:101B10007F2B28BF7F238DF807309DB90DF1070378
:101B200007220821304600F061FE0F27002502340D
:101B30009DF807309D4207EBC50105D30731C80862
:101B400003B0F0BD0827F1E763190822304600F022
:101B50004DFE0135ECE70000F7B50E4605460021C5
:101B600014463046CE22FFF70BFE2B4628220021DA
:101B7000304600F03BFE2B7AC82B28BFC8238DF8D7
:101B800007308CB90DF1070308222821304600F0F8
:101B90002DFE30242F469DF807207B1B934205D352
:101BA000E01DC00803B0F0BD2824F3E707F10903E6
:101BB00021460822304600F019FE08340137EAE7D2
:101BC000F7B5047F05460E4634B1838AB3F5827FAC
:101BD00002D9012003B0F0BD00960123102200219C
:101BE000284600F0CFFCDCB9B31C00930922234641
:101BF0001021284600F0C6FC19247388B3F5807FB5
:101C0000E7D837467288BB1B934210D32A7FAB8A32
:101C10000734E408B2B99C4294BF00200120D9E700
:101C2000AB8ADB00103BDB0873801024E5E73B1D2B
:101C30000093214600230822284600F0A3FC083424
:101C40000137DFE7E01A18BF0120C3E730B5094DBF
:101C50000A44914200D130BD11F8013B584008239D
:101C600040F30004013B2C4013F0FF0384EA5000D2
:101C7000F6D1EEE72083B8EDF7B54FF0FF33DFF88C
:101C800054C0DFF854E000EB81061946B04203D19E
:101C9000D843C94303B0F0BD50F8042B019201AF03
:101CA000042217F8014B81EA04610824DB180D4671
:101CB00004F1FF344941002DBCBF83EA0C0381EAE3
:101CC0000E0114F0FF04F1D1013A12F0FF02E8D145
:101CD000DCE700BF9336EAA9EBE1F042F7B5364AFC
:101CE000106851686B4603C36A4634493448082378
:101CF000FEF780FD044618B30369B3F5E02F54D80E
:101D0000418B40F24C42914251D12E4A024402F1A1
:101D100010018B424DD3103B294900209D1AFFF73B
:101D200095FF2A46064604F118010020FFF78EFFB2
:101D3000A3689E4202D1E368984232D00D2500E0AC
:101D40000A25214A106851686B4603C36A461F4939
:101D50001B480823FEF74EFD044618B30369B3F58C
:101D6000E02F1FD8B0F8661040F24C42914219D1D2
:101D7000144A024402F15C018B4213D35C3B1049CC
:101D800000209E1AFFF762FF3246074604F1640105
:101D90000020FFF75BFFA3689F4203D1E3689842EE
:101DA00000D10025284603B0F0BD0B25C9E70C255E
:101DB000C7E71025C5E700BFCF470008DCFF0600D6
:101DC000000001080800FFF7D847000890FF060050
:101DD00000B59BB0EFF3098168226846FFF7C4FCA9
:101DE000EFF30583014B9B6BFEE700BF00ED00E0C6
:101DF00008B5FFF7EDFF000000B59BB0EFF30981D8
:101E000068226846FFF7B0FCEFF30583014B5B6B7C
:101E1000FEE700BF00ED00E0FEE7000001F0F4BDCA
:101E200001F0D6BD0E2809D8DFE800F0151515150C
:101E300015151515150A0C0E1012140040207047C8
:101E40000C207047102070471420704718207047EE
:101E500020207047302070472DE9F043456A35B99E
:101E60004162BDE8F083CEF800100B60F9E74E68E0
:101E700026F0604CC6F38A47C6F3807817EA260737
:101E800038BF6746AE462B465C6894EA060F24F0DE
:101E900060420CD5002C1EDA920CBA4201D0BA4234
:101EA0000FD99D42DFD10D60DAE71346ECE7944588
:101EB00005D104F08049C4F38074444507D19445AA
:101EC000EFD31A689E46002AEFD11960C9E7B9F12D
:101ED000000FF6D0E5E7BA42F3D0E0E72DE9F0478E
:101EE000089E01F007054FEAD6082A4406F00706C7
:101EF00000EBD1014FF47F49954201D1BDE8F08755
:101F000005F0070C06F0070AD445674638BF574668
:101F1000C7F10807501BEC08874228BF07460C5D35
:101F200008EBD60004FA0CF413F800E029FA07FCD9
:101F300024FA0AF45FFA8CFC8EEA04044CFA0AFCD8
:101F400004EA0C048EEA040E03F800E03D443E442B
:101F5000D2E7000080EA0120082341F2210201B209
:101F60004000002980B203F1FF33B8BF504013F0A6
:101F7000FF03F4D17047000038B50C468D18A54218
:101F800000D138BD14F8011BFFF7E4FFF7E70000AC
:101F90000346406848B102685A605A8999890132FB
:101FA00092B291425A8138BF9A81704770B588B019
:101FB000202204460D4668460021FFF7E1FB20463B
:101FC0000495FFF7E5FF024658B16B46054608AE9B
:101FD0001C4603CCB44228606960234605F108051D
:101FE000F6D1104608B070BD2DE9F843078C072FD5
:101FF00004461ED9D0E9029800254FF6FF73C5F1BB
:102000002006A5F1200029FA05F108FA06F628FABB
:1020100000F031430143C9B21846FFF79BFF083572
:10202000402D0346EBD1E1693A46BDE8F843FFF79E
:10203000A3BF4FF6FF70BDE8F883000010B54B68F2
:1020400023B9CA8A63F30902CA8210BD04691A68F7
:102050001C600361C38A013BC3824A60EFE7000052
:102060002DE9F84F1C46CB8A8046C3F309000528AA
:102070000F46914603462ED000221A319DB2042D00
:1020800096B211D8B44203F1010308D80444FB8A84
:10209000C4F3090464F30903FB82012019E019F871
:1020A0000250CD540132E9E7B442EFD9A0F1050A5C
:1020B0001C237D68BAFBF3F203FB12AA1FFA8AF213
:1020C00095BB4046FFF764FF054630B978606FF076
:1020D0000200BDE8F88F0026E8E700220260786081
:1020E0004FF0000AB44242D9D31C2B44901B25E088
:1020F000013189B21D462B68002BF9D1631F0344BF
:102100001C20B3FBF0F301339BB29942E8D2BAF141
:10211000000FE5D14046FFF73BFF38B1C0F800A003
:10212000524628600546DBE70121E4E7C5F800A038
:10213000CDE719F8061003F8011F013610FA86F1F1
:1021400089B21B291FFA86FB03D85C45F1D85E468D
:10215000C8E75C45FBD94046FFF71AFF28B1C0F835
:1021600000A0002228600546F1E72860AFE7FB8A5F
:102170001C448CE72DE9F74F1C465B69009207462B
:102180008846002B00F0B580238C2BB1E269002A31
:1021900000F0AF80072B4AD807F10C00FFF7F8FEDC
:1021A000054620B96FF0020003B0BDE8F08F14229D
:1021B0000021FFF7E5FA228CE16905F10800FFF73D
:1021C000D3FA208C013080B208280DD90C2824D9EC
:1021D000102824D9142824D9182824D9202824D90F
:1021E000312834BF0E200F20FFF71CFE013880B2CB
:1021F0002084013028746369228C1B782A4403F000
:102200001F0363F03F03137248F0004338466B60CE
:102210002946FFF721FE0120C6E70920E4E70A204E
:10222000E2E70B20E0E70C20DEE70D20DCE70233DD
:102230009BB20722C18A0633B3FBF2F3828A521A99
:102240009BB292B29342ADD8002500F10C034FF03F
:102250008009AA462E460193238CB34201D128B2AD
:10226000A2E70198FFF794FE834600289AD0142233
:102270000021FFF785FA56B9009BABF8083002221F
:102280000BF1080C218CB14203D890B20BE0002274
:10229000F6E7E169895D0CF80210013290B201366F
:1022A0000728B6B2EED1228C013080B2FFF7BAFD1A
:1022B000B24208BF4FF0400962691278013802F05B
:1022C0001F021BFA80F142EA4A1249EA02020A722C
:1022D000013048F000428BF81000CBF8042059463A
:1022E0003846FFF7B9FD8AF0010A01354FF00009C1
:1022F000B2E76FF0010057E7F8B515460E463022F9
:10230000002104461F46FFF73BFAB5F5001F069B68
:10231000636034BF6A094FF6FF72079BA76095B2EE
:10232000A362E66104F1100006EB4212964206D168
:1023300000230360A582E3822383E360F8BD066087
:1023400030462036F2E7000003781BB94BB2002B71
:10235000C8BF01707047000000787047F8B50C46A0
:10236000C969074609B9238CB3BB257E1F2D33D815
:102370003B7823BB228C072A2BD8268A032E2BD806
:102380004FF6FF70FFF7F8FD20F001003602400421
:1023900046EA0566400C46EA40254FF6FF722346A2
:1023A00029463846FFF7E6FE002807DD6269137804
:1023B0000133DBB21F2B88BF00231370F8BD228AC4
:1023C0002D0645EA022520461D43FFF70DFE024675
:1023D000E5E76FF00300F1E76FF00100EEE70000C2
:1023E00070B58AB0044616460021282268461D466C
:1023F000FFF7C6F9BDF83830ADF810300F9B0593E4
:102400009DF840308DF81830119B07936946BDF850
:102410004830ADF820302046CDE90265FFF79EFF39
:102420000AB070BD2DE9F041D36905460C46164649
:102430000BB9138C5BBB377E1F2F28D895F8008013
:10244000B8F1000F26D03046FFF7CEFD33782102D9
:1024500041EAC33141EA0801338A41EA076141EAAE
:1024600003410246334641F080012846FFF782FED1
:1024700000280ADD3378012B07D172691378013304
:10248000DBB21F2B88BF00231370BDE8F0816FF013
:102490000100FAE76FF00300F7E70000F0B58BB03A
:1024A00004460D4617460021282268461E46FFF7BF
:1024B00067F99DF84C305A1E534253418DF8003055
:1024C0009DF84030ADF81030119B05939DF84830D1
:1024D0008DF81830149B07936A46BDF85430ADF858
:1024E000203029462046CDE90276FFF79BFF0BB04E
:1024F000F0BD0000406A00B104307047436A1A68BA
:10250000426202691A600361C38A013BC382704759
:102510002DE9F843D0F82090194F14461E4649463D
:102520004FF0000809B9BDE8F883D1E90252651BF4
:1025300066EB0202AF4278EB02021ED2036A8B42C4
:102540000DD1FFF77BFD036A1B68036203690B6013
:10255000C38A0161016A013BC3828946E2E7FFF752
:102560006DFD0B68C9F8003003690B60C38A016117
:10257000013BC382D9F80010D4E789460968D1E746
:1025800080841E002DE9F04F8BB00D46DDF85080A1
:10259000049314468246002800F01881B8F1000F19
:1025A00000F01481531E3F2B00F21081012A03D149
:1025B000049B002B40F00A81BAF814B00023B5EB5D
:1025C000CB0FCDE908334FEACB0703D300200BB084
:1025D000BDE8F08F2B199F42DAF80C3003933ABF15
:1025E0007F1BFFB227461BB9DAF81030002B75D0DD
:1025F000272D4AD8C5F12806B7424FF000032CBF5B
:10260000F6B23E4600932946DAF8080008AB324697
:10261000FFF764FCA7EB060935445FFA89F90BF173
:10262000005BABF1050B4FEACB0B2821039B13B1E9
:10263000B9F1000F2CD1DAF8100040B1B9F1000F58
:1026400005D0009608AB4A46691AFFF747FC38B236
:10265000002FBBD067070AD00AAB03EBD40162425C
:1026600011F8083C02F00702134101F8083C082C5D
:102670003BD9102C40F2B580202C40F2AD80049B59
:10268000002B00F09780082332E0B9460026C6E709
:102690005B46E02B28BFE02306930B44AB42059337
:1026A00014D95A1B03980096914534BF4A46D2B2BA
:1026B000691A08AB04300792FFF710FC079A16441A
:1026C0001544A9EB0202F6B25FFA82F9069B05995E
:1026D000ABEB030B039B1B680393A7E70093DAF8AC
:1026E000080008AB3A462946AFE7049B93B10123A3
:1026F000B4EBC30F63D0082C11D89DF82030621EB4
:1027000023FA02F2D60705D54FF0FF32A240134359
:102710008DF820309DF8203088F8003057E7102CD5
:1027200011D8BDF82030621E23FA02F2D50705D574
:102730004FF0FF32A2401343ADF82030BDF82030F7
:10274000A8F8003043E7202C0ED8089A631E22FA1E
:1027500003F3D90704D54FF0FF33A3401343089385
:10276000089BC8F8003032E7402C32D0DDE9085130
:10277000631EC4F12106A4F1210225FA03F301FA34
:1027800006F6334321FA02F21343DB0712D5012385
:10279000A4F12002C4F1200603FA02F223FA06F69D
:1027A000A3405B4242EA060262EB42022B430A4329
:1027B000CDE90832DDE90823C8E9002307E7082C42
:1027C000A8D0102CBAD0202CF4D1C9E76FF00100AA
:1027D000FDE66FF00800FAE6049B002BC0D004234E
:1027E00086E7049B002BA9D0022381E730B5012A9C
:1027F000144638BF0122402A85B028BF4022002558
:10280000012CCDE902550ED81B788DF8083004ABA9
:1028100003EBD205544215F8083C04F00704A3402A
:1028200005F8083C06E0082C0CD81B788DF8083019
:102830005307ECD100910346002102A8FFF74EFB9D
:1028400005B030BD102C03D81B88ADF80830EFE779
:10285000202C8DBFD3E900451B680293CDE90245CA
:10286000E6E7000010B5CB681BB98B600B618B826B
:1028700010BD04691A681C600361C38A013BC382EE
:10288000CA60F0E703064CBFC0F3C03002207047B7
:1028900008B50246FFF7F6FF022806D15306C2F339
:1028A0000F2001D100F0030008BDC2F30740FBE791
:1028B0002DE9F04FD1F8008097B004464046CDE9AD
:1028C0000423FFF7DFFF022814BFC8F30626002603
:1028D000B8F1000F0D46039080F2ED8118F0C04A68
:1028E00040F0E981097B002900F0E581039B022B80
:1028F00003D02378B34240F0E18108F07F034046E3
:102900000693FFF7C5FF069B079029444FEA8349CA
:10291000039B91F803B049EA034949EA466900225A
:1029200000235FEADB16CDE90C2349EA000977D0E2
:10293000069B009302466768039B0CA92046B84794
:10294000002800F0BE81276A002F57D1494604F1C4
:102950000C00FFF72BFB0746002800F0E4802762FD
:102960006B7B0A93BB7E0B93FB7DD7F804E00BF0E7
:102970001F09C3F38403A3EB09001FFA80FC00289E
:10298000B8BF0CF1200C0890A9EB0303B8BF0FFAF5
:102990008CF0D7E902121FFA83FCB8BF0890002B15
:1029A000B8BF0CF1200C0993BCBF0FFA8CF309934C
:1029B00051EA020C00F09E81049B591A059B63EBBF
:1029C0000202AE4B4FF0000C8B427CEB0203C0F0D6
:1029D0009181DDE90A30834240F07F8166B3089B34
:1029E000012B00F38781BEF1000F40F08381A448E2
:1029F00088427EEB0202C0F0798126E03B6999456E
:102A0000AED03F68002FF9D1494604F10C00FFF722
:102A1000CDFA0746002800F08680236A3B609EE7D7
:102A2000276A27B96FF00C0017B0BDE8F08F3B693B
:102A3000994595D03F68F4E7914B8B4276EB0202C3
:102A400003D26A7BBB7E9A4239D1C8F30468002E58
:102A500037D01BF0400F34D0049BBB60059BFB605C
:102A60001422002111A8FEF78BFE049B0E93059BF8
:102A70000F932B1D10932B7B8DF85190013BDBB2F4
:102A8000ADF84C30079BADF84E30039B8DF85030BD
:102A9000069B8DF8533094F82C308DF8528083F0DB
:102AA00001038DF854300EA9A36820469847FB7D9A
:102AB000C3F38403013303F01F039B02FB82002056
:102AC000B2E7FB7DCBF34012B2EBD31F40F0FC80AA
:102AD000C3F384034B4540F0FA802B7B002E51D08A
:102AE000032B40F2F780049BBB60059BFB60FB8AD5
:102AF0006FF30903FB822B7BAE1D033BDBB2324637
:102B0000394604F10C00FFF7ABFA00280EDA39461B
:102B10002046FFF793FAFB7DC3F38403013303F0F0
:102B20001F039B02FB826FF002007DE7DDE90C844E
:102B3000AB883B834FF6FF73CAF12000AAF1200255
:102B400028FA0AF104FA00F0014324FA02F21143D0
:102B50001846C9B2FFF7FEF90AF1080ABAF1400FA8
:102B60000346E9D1B8822A7B033AD2B23146FFF755
:102B700003FAFB7DB882DA43C2F3C01262F3C713D3
:102B8000FB759CE7013B5FEA9B1BDBB20ED12E1D60
:102B90003246394604F10C00FFF762FA0028B6DB32
:102BA0002A7BB88A013AD2B23146E0E7FA8AC2F308
:102BB0000902042A5CD86BB1E91C07F11B0011F86B
:102BC00001CF00F802C001320136052AF6B201D069
:102BD0009E42F4D3049A0E92059A0F929E4207F1F8
:102BE0001B02109238BF04367A68119234BF55FA2E
:102BF00086F600261296FA8A8DF85190C2F30902E1
:102C00001344ADF84C30079BADF84E30039B8DF864
:102C10005030069B8DF8533094F82C308DF852804C
:102C200083F001038DF8543000237B602A7BB88A3F
:102C3000013A291DFFF7A0F93B8BB882834203D1EB
:102C4000A3680EA92046984720460EA9FFF70AFE62
:102C5000FB7DBA8AC3F38403013303F01F039B0295
:102C6000FB823B8B9A4214BF6FF010000020DBE622
:102C700078680028AED0052106E000BF80841E00E1
:102C800040420F001C3130460668002EFAD1521A1D
:102C9000D11C05F1030C014402EB0A001B285FFA6A
:102CA0008AF697D89E4295D21CF8010F01F8010FC1
:102CB0000AF1010AF0E76FF00900B5E66FF00A00CB
:102CC000B2E66FF00B00AFE66FF00D00ACE66FF010
:102CD0000E00A9E66FF00F00A6E6134888427CEBD1
:102CE0000202BFF4ECAE002E3FF4ABAE099B0F2BFB
:102CF0003FF7A7AEFA7D4FEA8B0302F0030203F021
:102D00007C031343FB7539462046FFF797F96B7B2D
:102D1000BB76002E7FF495AEFB7DC3F384020132B7
:102D200062F38603FB757DE640420F00404BF0B531
:102D30001C6C404D44F000741C641C6E44F0007424
:102D40001C661B6E3C4B9B6AD3F800422C4044F03F
:102D50000104C3F80042D3F800422C4044EA0024A6
:102D600044F00104C3F80042002952D00020C3F807
:102D70001C020546C3F80402C3F80C02C3F814028F
:102D800003EBC00401301C28C4F84052C4F844527C
:102D9000F6D100254FF0010C96781488F70748BF4C
:102DA000D3F804720CFA04F044BF0743C3F804726A
:102DB000B70742BFD3F80C720743C3F80C7276070B
:102DC00042BFD3F814620643C3F8146203EBC40491
:102DD0005668C4F840629668C4F84462D3F81C424E
:102DE00001352043A942C3F81C0202F10C02D3D1E1
:102DF000D3F8002222F00102C3F800220C4B1A6C17
:102E000022F000721A641A6E22F000721A661B6EAB
:102E1000F0BD0122C3F84012C3F84412C3F80412F3
:102E2000C3F81412C3F80C22C3F81C22E0E700BF59
:102E3000003802400000FFFFA8350020184A916AC0
:102E400008B58B688B6013F0010104D013F00C0FF0
:102E500018BF4FF48031D80506D513F4406F14BF66
:102E600041F4003141F00201D80306D513F4402F9C
:102E700014BF41F4802141F00401D3690BB108482B
:102E80009847302383F311880648002100F028FB7F
:102E9000002383F31188BDE8084000F0ABBE00BFFB
:102EA000A8350020B035002038B5124CA36ADD6883
:102EB000AA0712D05A6922F002025A61A36913B11B
:102EC000012120469847302383F311880A480021C6
:102ED00000F006FB002383F31188EB0606D5A36AF6
:102EE0001021D960236A0BB102489847BDE83840E9
:102EF00000F080BEA8350020B835002038B5124C4F
:102F0000A36A1D69AA0712D05A6922F010025A61F9
:102F1000A36913B1022120469847302383F3118817
:102F20000A48002100F0DCFA002383F31188EB0645
:102F300006D5A36A10211961236A0BB1024898478C
:102F4000BDE8384000F056BEA8350020B835002056
:102F500038B50F4CA36A5D685D602A070AD5042264
:102F600022701A6822F002021A60636A13B100210B
:102F7000204698476B0706D5A36A9969236A13B15F
:102F8000034809049847BDE8384000F033BE00BF4D
:102F9000A835002010B50E4C204600F029F90D4B45
:102FA000A3620B21132000F00BF90B21142000F079
:102FB00007F90B21152000F003F90B21162000F072
:102FC000FFF80022BDE8104011460E20FFF7AEBE0C
:102FD000A835002000640040114B984210B504460B
:102FE00009D1104B1A6C42F000721A641A6E42F04A
:102FF00000721A661B6EA36A01221A60A36A5A68DD
:10300000D20707D5626851681268D9611A60064A0A
:103010005A6110BD0121082000F0A6F9EEE700BFBB
:10302000A8350020003802405B87010003291AD828
:10303000DFE801F0020A0F14836A9B6813F0E05F77
:1030400014BF012000207047836A9868C0F3806035
:103050007047836A9868C0F3C0607047836A986855
:10306000C0F30070704700207047000010B50329BE
:1030700025D8DFE801F00225292D836A9968C1F37C
:103080000161183103EB0113107884064CBF5468BA
:103090009488C0F300114FEA410148BF41EAC401DE
:1030A00000F00F004CBF41F0040141EA4451586068
:1030B00041F001019068D2689860DA60196010BD33
:1030C000836A03F5C073DFE7836A03F5C873DBE740
:1030D000836A03F5D073D7E701290AD002290FD0FC
:1030E00081B9836ADA68920701D1186903E0012087
:1030F0007047836AD86810F0030018BF012070473A
:10310000836AF2E70020704710B539B9836AD9683D
:1031100089071BD11B699B0704D110BD012915D05C
:103120000229FAD1816AD1F8C031D1F8C401D1F8AD
:10313000C8411461D1F8CC41546120240C610C6960
:10314000A40717D14C6944F0100412E0816AD1F849
:10315000B031D1F8B401D1F8B8411461D1F8BC4113
:1031600054612024CC60CC68A40703D14C6944F09E
:1031700002044C61C3F34001C3F38004090141EA36
:103180004411147924F030042143117189064BBF96
:1031900091681189DB085B0D4CBF63F31C0163F37D
:1031A0000A01137948BF916060F3030313714FEA7A
:1031B00010234FEA104058BF118113705080ACE7C4
:1031C00000F1604303F561430901C9B283F80013BC
:1031D000012200F01F039A4043099B0003F1604362
:1031E00003F56143C3F880211A607047FFF7D2BE30
:1031F000012300F10802C0E90222037000F110026D
:103200000023C0E90422C0E90633C0E90833436063
:103210007047000010B53023044683F31188022361
:1032200003704160FFF7D8FE04232370002080F371
:10323000118810BD2DE9F0411F4604460D46164683
:10324000302383F3118800F108082378052B0DD073
:1032500029462046FFF7EAFE40B12046324629467D
:10326000FFF704FF002080F3118808E0394640464C
:1032700000F01AF90028E8D0002383F31188BDE894
:10328000F08100002DE9F0411F4604460D46164628
:10329000302383F3118800F110082378052B0DD01B
:1032A00029462046FFF718FF40B1204632462946FE
:1032B000FFF72AFF002080F3118808E039464046D6
:1032C00000F0F2F80028E8D0002383F31188BDE86D
:1032D000F081000000230375826803691B68996808
:1032E0009142FBD25A680360426010605860704798
:1032F00000230375826803691B6899689142FBD8B3
:103300005A680360426010605860704708B508460C
:10331000302383F311880B7D032B05D0042B0DD0B4
:103320002BB983F3118808BD8B6900221A604FF016
:10333000FF338361FFF7CEFF0023F2E7D1E90032CC
:1033400013605A60F3E70000FFF7C4BF054BD9686C
:103350000875186802681A60536001220275D86007
:10336000FCF7D0BFE837002030B50C4BDD684B1CB4
:1033700087B004460FD02B46094A684600F044F94E
:103380002046FFF7E3FF009B13B1684600F046F9C3
:10339000A86907B030BDFFF7D9FFF9E7E83700208B
:1033A0000D330008044B1A68DB6890689B689842EC
:1033B00094BF002001207047E8370020084B10B56B
:1033C0001C68D86822681A60536001222275DC608C
:1033D000FFF78EFF01462046BDE81040FCF792BF84
:1033E000E837002038B5074C074908480123002575
:1033F0002370656000F064FC0223237085F311885C
:1034000038BD00BF40380020F0470008E8370020F2
:1034100000F03AB98B60022308618B82084670473E
:103420008368A3F1840243F8142C026943F8442C06
:10343000426943F8402C094A43F8242CC26843F8F7
:10344000182C022203F80C2C002203F80B2C044A3F
:1034500043F8102CA3F12000704700BF1D030008A3
:10346000E837002008B5FFF7DBFFBDE80840FFF7AD
:103470006BBF0000024BDB6898610F20FFF766BF4F
:10348000E8370020302383F31188FFF7F3BF0000F3
:1034900008B50146302383F311880820FFF764FF45
:1034A000002383F3118808BD064BDB6839B14268FD
:1034B00018605A60136043600420FFF755BF4FF057
:1034C000FF307047E837002003460068834205D08C
:1034D00002681A6053608161FFF736BF70470000D1
:1034E00038B504460D462068844200D138BD0368D3
:1034F00023605C608561FFF727FFF4E710B5036880
:103500009C68A2420CD85C688A600B604C602160A9
:1035100059609968891A99604FF0FF33836010BD34
:103520001B68121BECE700000A2938BF0A2170B59E
:1035300004460D460A26601900F0BCFB00F0A8FB0B
:10354000041BA54203D8751C2E460446F3E70A2E39
:1035500004D9BDE87040012000F0F2BB70BD00004E
:10356000F8B5144B1446D961826003F11002426031
:103570000A2C1A69026038BF0A24506018610819C1
:103580000D4600F089FB0A2700F082FB431BA34293
:10359000064606D37C1C281900F08CFB27463546CE
:1035A000F2E70A2F04D9BDE8F840012000F0C8BBBB
:1035B000F8BD00BFE837002070B50D46064600F0A4
:1035C00067FB0F490B4653F8102F9A4206D12A4643
:1035D00001463046BDE87040FFF7C2BFCB69C41A50
:1035E0002C19936828BF2C46A34202D92946FFF71D
:1035F0009BFF224631460348BDE87040FFF77EBF7F
:10360000E8370020F837002010B4C0E90323002376
:103610005DF8044B4361FFF7CFBF000010B5194CB4
:10362000236998420DD0D0E90032816813605A6056
:103630009A680A449A60002303604FF0FF33A36145
:1036400010BD2346026843F8102F53600022026029
:1036500022699A4203D1BDE8104000F025BB93686F
:1036600081680B44936000F013FB2269E169926862
:10367000441AA242E4D91144BDE81040091AFFF7E8
:1036800053BF00BFE83700202DE9F047DFF8B880CE
:1036900008F110072B4ED8F8105000F0F9FAD8F8BE
:1036A0001C40AA68011B8A423DD81444D5E9003267
:1036B000C8F81C4013605A6000232B60D8F8102013
:1036C000B242994601D100F0EFFA89F31188D5E9A9
:1036D000033128469847302383F311886B69002B08
:1036E000D9D000F0D5FA6A69A0EB04094A458246B0
:1036F0000DD2022000F024FB0022D8F81030B34293
:1037000008D151462846BDE8F047FFF729BF2244BB
:10371000121AF2E712EB090938BF4A462946384621
:10372000FFF7ECFEB6E7D8F81010B14208D0144409
:10373000211AC8F81C00A960BDE8F047FFF7F4BEE5
:10374000BDE8F087F8370020E837002038B500F0F2
:103750009FFA054AD2E90845031B181945F10001F3
:10376000C2E9080138BD00BFE837002000207047DB
:10377000FEE70000704700004FF0FF307047000088
:10378000BFF34F8F024AD368DB03FCD4704700BFFE
:10379000003C024008B5094B1B7873B9FFF7F0FFF6
:1037A000074B1A69002ABFBF064A5A6002F18832E5
:1037B0005A601A6822F480621A6008BD48380020F6
:1037C000003C02402301674508B50B4B1B7893B9B9
:1037D000FFF7D6FF094B1A6942F000421A611A68D6
:1037E00042F480521A601A6822F480521A601A68F1
:1037F00042F480621A6008BD48380020003C024054
:103800000728F0B515D80C4C0C49237873B90C4D2A
:103810000E464FF00062013355F8047B46F8042B46
:10382000DBB2082B3A44F6D10123237051F8200073
:10383000F0BD0020FCE700BF493800204C380020D4
:10384000FC470008014B53F820007047FC47000874
:1038500008207047072810B5044601D9002010BD84
:10386000FFF7CEFF064B53F824301844C21A0BB9A9
:103870000120F4E712680132F0D1043BF6E700BF03
:10388000FC470008072810B5044621D8FFF778FF49
:10389000FFF780FF0F4AF323D360C300DBB243F48A
:1038A000007343F002031361136943F4803313611F
:1038B000FFF766FFFFF7A4FF074B53F8241000F053
:1038C0001BF9FFF781FF2046BDE81040FFF7C2BF9C
:1038D000002010BD003C0240FC470008F8B5D507A9
:1038E000144641D42D4B82189A423DD82C4B1B686C
:1038F000DA0739D52B4FFFF74DFFF323FB60FFF7B6
:103900003FFF40F20126032C15D824F00104254D79
:103910000C44401A40F20117A1422B6901EB00064A
:1039200024D123F001032B61FFF74EFF0120F8BDE6
:10393000043C0430E7E78307E7D13B6923F4407395
:103940003B613B6933433B6151F8045B0560BFF366
:103950004F8FFFF715FF03689D42E9D03B6923F0C5
:1039600001033B61FFF730FF0020E0E723F44073E1
:103970002B612B693B432B610B883380BFF34F8F47
:10398000FFF7FEFE368831F8023BB6B2B342C3D031
:103990002B6923F001032B61E4E700BF0000080856
:1039A00000380240003C0240084908B50B7828B1B5
:1039B0001BB9FFF7EFFE01230B7008BD002BFCD0F5
:1039C000BDE808400870FFF7FFBE00BF4838002080
:1039D00038B5EFF311859DB9EFF30584C4F30804FE
:1039E000302334B183F31188FFF7B0FE85F31188DB
:1039F00038BD83F31188FFF7A9FE84F3118838BD21
:103A0000BDE83840FFF7A2BE38B5FFF7E1FF104C24
:103A1000104AC00840EA4170A0FB025EC908A0FB42
:103A2000040C1CEB05004FF00003A1FB04455B41B7
:103A30000019A1FB021043EB050311EB0E0140F14D
:103A400000005B1840F100001B0943EA007038BD1C
:103A5000CFF753E3A59BC42010B50244064BD2B266
:103A6000904200D110BD441C00B253F8200041F830
:103A7000040BE0B2F4E700BF502800400F4B30B514
:103A80001C6F240407D41C6F44F400741C671C6F63
:103A900044F400441C670A4C236843F48073236099
:103AA0000244084BD2B2904200D130BD441C00B257
:103AB00051F8045B43F82050E0B2F4E700380240CC
:103AC000007000405028004007B5012201A90020E5
:103AD000FFF7C2FF019803B05DF804FB13B504467D
:103AE000FFF7F2FFA04205D0012201A900200194B6
:103AF000FFF7C4FF02B010BD70470000074B45F24E
:103B000055521A6003225A6040F2FF729A604CF6D6
:103B1000CC421A60024B01221A70704700300040FC
:103B20006C380020034B1B781BB1034B4AF6AA22CA
:103B30001A6070476C38002000300040034B1A6850
:103B40001AB9034AD2F874281A60704770380020F6
:103B500000300240024B4FF08072C3F87428704767
:103B60000030024008B5FFF7E9FF024B1868C0F3C8
:103B7000407008BD7038002008B5FFF7DFFF024B2A
:103B80001868C0F3007008BD70380020EFF3098397
:103B900005494A6B22F001024A63683383F30988BE
:103BA000002383F31188704700EF00E0302080F39A
:103BB000118862B60C4B0D4AD96821F4E061090402
:103BC000090C0A43DA60D3F8FC20094942F08072FC
:103BD000C3F8FC200A6842F001020A602022DA776A
:103BE00083F82200704700BF00ED00E00003FA05F3
:103BF000001000E010B5302383F311880E4B5B6892
:103C000013F4006314D0F1EE103AEFF30984683C2A
:103C10004FF08073E361094BDB6B236684F3098803
:103C2000FFF7C0FB10B1064BA36110BD054BFBE7CE
:103C300083F31188F9E700BF00ED00E000EF00E03A
:103C40002F0300083203000870470000FEE7000061
:103C50000A4B0B480B4A90420BD30B4BDA1C121A3F
:103C6000C11E22F00302994288BF00220021FDF705
:103C700087BD53F8041B40F8041BECE754490008C7
:103C8000CC3D0020CC3D0020CC3D002000F0CAB847
:103C90004FF08043586A70474FF0804300225863CA
:103CA0001A610222DA6070474FF080430022DA6026
:103CB000704700004FF0804358637047FEE70000F4
:103CC00070B51B4B01630025044686B085620E4625
:103CD0005860FFF76BFF04F11003C4E904334FF0A1
:103CE000FF33C4E90635C4E90044A560E562FFF787
:103CF000CFFF2B460246C4E9082304F134010D4AE4
:103D0000256580232046FFF785FB0123E0600A4AF2
:103D10000375009272680192B268CDE90223074BE5
:103D20006846CDE90435FFF79DFB06B070BD00BFC6
:103D300040380020E4470008E9470008BD3C00087F
:103D4000024AD36A0343D362704700BFE8370020BA
:103D50004B6843608B688360CB68C3600B694361C9
:103D60004B6903628B6943620B6803607047000014
:103D700008B5234B23481A6942F0FF021A611A69F9
:103D800022F0FF021A611A691A6B42F0FF021A63ED
:103D90001A6D42F0FF021A651B4A1B6D1146FFF7B0
:103DA000D7FF02F11C0100F58060FFF7D1FF02F19F
:103DB000380100F58060FFF7CBFF02F1540100F5F8
:103DC0008060FFF7C5FF02F1700100F58060FFF72A
:103DD000BFFF02F18C0100F58060FFF7B9FF02F12F
:103DE000A80100F58060FFF7B3FF02F1C40100F500
:103DF0008060FFF7ADFFBDE8084000F08DB800BF60
:103E000000380240000002401C48000808B500F0DD
:103E100027FAFFF7E7FABDE80840FFF78FBE00007A
:103E2000704700000F4B1A6C42F001021A641A6EC0
:103E300042F001021A660C4A1B6E936843F00103BC
:103E400093604FF0804331229A624FF0FF32DA6282
:103E500000229A615A63DA605A6001225A611A603C
:103E6000704700BF00380240002004E04FF080425D
:103E700008B51169D3680B40D9B2C9439B071161DA
:103E800007D5302383F31188FFF7C2FA002383F3A9
:103E9000118808BD1E4B1A6962F0FF021A611A6987
:103EA000D2B21A614FF0FF301A695A695861002185
:103EB0005A6959615A691A6A62F080521A621A6A1A
:103EC00002F080521A621A6A5A6A58625A6A596231
:103ED0005A6A1A6C42F080521A641A6E42F080528A
:103EE0001A661A6E0B4A106840F480701060186FE2
:103EF00000F44070B0F5007F1EBF4FF480301867AB
:103F00001967536823F40073536000F07DB900BF54
:103F100000380240007000403B4B3C4A1A643C4A67
:103F20004FF4404111601A6842F001021A601A68A9
:103F30009007FCD59A6822F003029A60324B9A6887
:103F400012F00C02FBD1196801F0F90119609A60B6
:103F50001A6842F480321A601A689103FCD55A6FCD
:103F600042F001025A67284B5A6F9207FCD5294A42
:103F70005A601A6842F080721A60254A53685804E1
:103F8000FCD5214B1A689101FCD5234AC3F8842043
:103F90001A6842F080621A601A681201FCD51F4A42
:103FA0009A600322C3F88C204FF00062C3F894207B
:103FB0001B4B1A681B4B9A421B4B21D11B4A1168A1
:103FC0001B4A91421CD140F203121A60164A136830
:103FD00003F00F03032BFAD10B4B9A6842F0020255
:103FE0009A609A6802F00C02082AFAD15A6C42F4DC
:103FF00080425A645A6E42F480425A665B6E704741
:1040000040F20372E1E700BF0038024000040010F4
:1040100000700040081940021030002400948838D5
:10402000002004E011640020003C024000ED00E0AC
:1040300041C20F41074A08B5536903F001035361B8
:1040400023B1054A13680BB150689847BDE8084092
:10405000FFF7D0BD003C014074380020074A08B586
:10406000536903F00203536123B1054A93680BB10E
:10407000D0689847BDE80840FFF7BCBD003C014050
:1040800074380020074A08B5536903F004035361EC
:1040900023B1054A13690BB150699847BDE8084040
:1040A000FFF7A8BD003C014074380020074A08B55E
:1040B000536903F00803536123B1054A93690BB1B7
:1040C000D0699847BDE80840FFF794BD003C014027
:1040D00074380020074A08B5536903F01003536190
:1040E00023B1054A136A0BB1506A9847BDE80840EE
:1040F000FFF780BD003C014074380020164B10B51E
:104100005C6904F478725A61A30604D5134A936A71
:104110000BB1D06A9847600604D5104A136B0BB1F7
:10412000506B9847210604D50C4A936B0BB1D06BAA
:104130009847E20504D5094A136C0BB1506C9847B7
:10414000A30504D5054A936C0BB1D06C9847BDE824
:104150001040FFF74FBD00BF003C01407438002005
:10416000194B10B55C6904F47C425A61620504D5B0
:10417000164A136D0BB1506D9847230504D5134AA9
:10418000936D0BB1D06D9847E00404D50F4A136EC0
:104190000BB1506E9847A10404D50C4A936E0BB135
:1041A000D06E9847620404D5084A136F0BB1506F64
:1041B0009847230404D5054A936F0BB1D06F9847F5
:1041C000BDE81040FFF716BD003C014074380020E8
:1041D00008B5034800F012F9BDE80840FFF70ABD32
:1041E000603B002008B5034800F008F9BDE808402E
:1041F000FFF700BDF438002008B5FFF737FEBDE833
:104200000840FFF7F7BC0000062108B50846FEF796
:10421000D7FF06210720FEF7D3FF06210820FEF76F
:10422000CFFF06210920FEF7CBFF06210A20FEF76B
:10423000C7FF06211720FEF7C3FF06212820FEF73F
:10424000BFFF07211C20FEF7BBFF0C212520FEF736
:10425000B7FFBDE808400C212620FEF7B1BF0000E3
:1042600008B5FFF717FE00F07DF8FEF7BFFF00F07E
:104270003DF8FFF7D5FDBDE80840FFF707BD00009A
:10428000026843680A43026003B1184770470000A0
:10429000143000F0DFB900004FF0FF33143000F0AD
:1042A000D9B90000383000F055BA00004FF0FF33A4
:1042B000383000F04FBA0000143000F0A5B900000B
:1042C0004FF0FF31143000F09FB90000383000F09B
:1042D000FFB900004FF0FF32383000F0F9B90000AC
:1042E000012914BF6FF013000020704700F060B880
:1042F00037B515460E4A026000224260C0E902222C
:104300000122044602740B46009000F15C014FF458
:104310008072143000F04EF900942B464FF48072F6
:1043200004F5AE7104F1380000F0C6F903B030BDF9
:10433000FC48000838B5C36904460D461BB9042182
:104340000844FFF79DFF294604F1140000F040F9EE
:10435000002806DA201D4FF40061BDE83840FFF761
:104360008FBF38BD0023054A19460133102BC2E91F
:10437000001102F10802F8D1704700BF7438002024
:10438000026843680A43026003B11847704700009F
:10439000024AD36843F0C003D36070470010014065
:1043A000024AD36843F0C003D36070470044004022
:1043B00010B50A4C0A4A20460021FFF799FF094B25
:1043C000094AC4E99723094C094A00212046FFF70E
:1043D0008FFF0849084BC4E9971310BD603B0020CC
:1043E0009143000880F0FA0200100140F4380020E8
:1043F000A14300080044004040787D012DE9F041D0
:10440000D0F85C62F76833680446D8059DB20DD5D4
:10441000302383F311884FF48061201DFFF7B0FF34
:104420006FF480733360002383F31188302383F3A8
:10443000118804F1040815F02F033AD183F3118891
:10444000380615D5290613D5302383F3118804F1D6
:10445000380000F065F900284CDA0821201DFFF72C
:104460008FFF4FF67F733B40F360002383F3118887
:104470007A0616D56B0614D5302383F31188D4E958
:1044800013239A420AD1236C43B127F040073F041B
:104490001021201D3F0CFFF773FFF760002383F30B
:1044A0001188D4F86822D36833B3BDE8F0411069AD
:1044B0001847290712D045F30001C5F3C00301F0E6
:1044C000200141EA0321AA0748BF41F040016B07E0
:1044D00048BF41F080014046FFF752FFAD067368C8
:1044E00005D594F8641220461940FFF723FF35687C
:1044F000ADB2A0E77060B8E7BDE8F081F8B5154649
:1045000082680669AA420B46816938BF8568761AB7
:10451000B54204460BD22A461846FDF725F9A26992
:104520002A44A368A2615B1BA3602846F8BD0CD98E
:1045300018463246FDF718F9AF1B3A46E168304499
:10454000FDF712F9E368DA19EBE72A461846FDF79A
:104550000BF9E268E5E70000836893422DE9F0413A
:104560001546044638BF8568D0E904703F1ABD423D
:104570000E460BD22A46FDF7F7F862692A44A36873
:1045800062615B1BA3602846BDE8F0810DD93A4605
:10459000A5EB0708FDF7E8F84246E068F119FDF7DA
:1045A000E3F8E36803EB0802E9E72A46FDF7DCF8E5
:1045B000E268E4E710B5C0E905110024C160C361F9
:1045C0001144029B8460C0E900000161036210BDD8
:1045D00008B5D0E90532934201D1826882B9826878
:1045E000013282605A1C42611970D0E904329A4249
:1045F00024BFC36843610021FEF766FF002008BDA9
:104600004FF0FF30FBE7000070B5302304460D4645
:1046100083F31188A668A6B1A368A269013BA360D1
:10462000531CA36115782269934224BFE368A361F8
:10463000E3690BB120469847002383F3118828468D
:1046400007E029462046FEF72FFF0028E2DA86F32E
:10465000118870BD2DE9F74F05460F46144699465F
:10466000D0F81CA04FF0300888F311884FF0000BF1
:10467000164666B1324639462846FFF73FFF0346E5
:1046800060B949462846FEF70FFF0028F2D0002304
:1046900083F31188A01B03B0BDE8F08FBAF1000FBF
:1046A00003D001902846D047019B8BF31188F61A5E
:1046B0001F4488F31188DCE7C0E90511C160C361BC
:1046C0001144009B8260C0E90000016103627047F1
:1046D000F8B504460D461646302383F31188A768C3
:1046E000A7B1A368013BA36063695A1C62611D7096
:1046F000D4E904329A4224BFE3686361E3690BB1F1
:1047000020469847002080F3118807E03146204674
:10471000FEF7CAFE0028E2DA87F31188F8BD000030
:10472000D0E905239A4210B501D182687AB982682E
:10473000013282605A1C82611C7803699A4224BF4C
:10474000C36883610021FEF7BFFE204610BD4FF015
:10475000FF30FBE72DE9F74F05460F461446994613
:10476000D0F81CA04FF0300888F311884FF0000BF0
:10477000164666B1324639462846FFF7EDFE034637
:1047800060B949462846FEF78FFE0028F2D0002384
:1047900083F31188A01B03B0BDE8F08FBAF1000FBE
:1047A00003D001902846D047019B8BF31188F61A5D
:1047B0001F4488F31188DCE76F72672E617264759D
:1047C00070696C6F742E736B795F676E73730040E2
:1047D000A2E4F1646891060041A3E5F265699207DD
:1047E000006330006D61696E0069646C65000000F3
:1047F000E1470008D8350020E837002000400000DD
:1048000000400000004000000040000000000100E7
:10481000000002000000020000000200A0002828A2
:1048200000000000AAAAAAAA50001424FFFF00005A
:10483000007700007007000000040A01000000007B
:10484000AAA6AAAA00000000DFEF000000000000F6
:10485000880000000000000000000000AAAAAAAA28
:1048600000000000FFFF000000000000000000004A
:104870000000000000000000AAAAAAAA0000000090
:10488000FFFF00000000000000000000000000002A
:1048900000000000AAAAAAAA00000000FFFF000072
:1048A0000000000000000000000000000000000008
:1048B000AAAAAAAA00000000FFFF00000000000052
:1048C000000000000000000000000000AAAAAAAA40
:1048D00000000000FFFF00000000000000000000DA
:1048E00000000000000000000A00000000000000BE
:1048F00003000000000000000000000000000000B5
:10490000AD42000899420008D5420008C1420008A3
:10491000CD420008B9420008A542000891420008B3
:10492000E14200086CC0FF7F0100000000000000B1
:104930004C04000000000000000007000000000020
:10494000FE2A0100D2040000640000000000000004
:0449500040420F00D2
:00000001FF
